:100000000C945E000C9486000C9486000C94860080
:100010000C9486000C9486000C9486000C94B50E0B
:100020000C9486000C9486000C9486000C94860038
:100030000C9486000C9486000C9486000C94860028
:100040000C946B0E0C9486000C94370F0C94110FCB
:100050000C9486000C9486000C9486000C94860008
:100060000C9486000C9486000200000000240027F7
:10007000002A0000000000250028002B00040404D2
:100080000404040404020202020202030303030341
:10009000030102040810204080010204081020011E
:1000A0000204081020000000080002010000030400
:1000B00007000000000000000000401011241FBED7
:1000C000CFEFD8E0DEBFCDBF13E0A0E0B1E0EAE4BF
:1000D000F8E202C005900D92A032B107D9F724E0F2
:1000E000A0E2B3E001C01D92AF3BB207E1F710E020
:1000F000CEE5D0E004C02197FE010E94E413CD3587
:10010000D107C9F70E9443110C9423140C940000EA
:10011000CF92DF92EF92FF92CF93DF93EC016A01CF
:100120007B01E889F98982E08083C11481EED806D9
:10013000E104F104A1F060E079E08DE390E0A70133
:1001400096010E94A3132150310941095109569586
:10015000479537952795211580E1380798F0E8896C
:10016000F989108260E874E88EE190E0A7019601B9
:100170000E94A31321503109410951095695479511
:1001800037952795EC85FD853083EE85FF852083A7
:10019000188EEC89FD8986E08083EA89FB8980815D
:1001A00080618083EA89FB89808188608083EA8915
:1001B000FB89808180688083EA89FB8980818F7DCB
:1001C0008083DF91CF91FF90EF90DF90CF900895E3
:1001D00090E0FC01EB55FF4F2491FC01EF56FF4FDF
:1001E0003491FC01E358FF4FE491EE23C9F0222340
:1001F00039F0233001F1A8F4213019F1223029F12E
:10020000F0E0EE0FFF1FED58FF4FA591B4918FB7AF
:10021000F894EC91611126C030953E233C938FBF3A
:1002200008952730A9F02830C9F0243049F780918B
:1002300080008F7D03C0809180008F778093800045
:10024000DFCF84B58F7784BDDBCF84B58F7DFBCFC7
:100250008091B0008F778093B000D2CF8091B000B2
:100260008F7DF9CF3E2BDACFCF93DF93EC01EC817A
:10027000FD8160E080810E94E800EC81FD8160E00A
:1002800081810E94E800EC81FD8160E082810E9412
:10029000E800EC81FD8160E083810E94E800EC8150
:1002A000FD8160E08481DF91CF910C94E800CF93D1
:1002B000DF9390E0FC01EF56FF4F249183589F4F4E
:1002C000FC0184918823C9F090E0880F991FFC01FC
:1002D000E759FF4FA591B491FC01ED58FF4FC5912F
:1002E000D49161110DC09FB7F8948C912095822311
:1002F0008C938881282328839FBFDF91CF91089515
:10030000623051F49FB7F8943C91822F80958323FB
:100310008C93E8812E2BEFCF8FB7F894EC912E2B96
:100320002C938FBFEACF3FB7F8948091360390911A
:100330003703A0913803B091390326B5A89B05C0B7
:100340002F3F19F00196A11DB11D3FBFBA2FA92F54
:10035000982F8827BC01CD01620F711D811D911D51
:1003600042E0660F771F881F991F4A95D1F70895BD
:100370008F929F92AF92BF92CF92DF92EF92FF92B5
:100380006B017C010E9493014B015C01C114D104FB
:10039000E104F104B9F00E949301681979098A090E
:1003A0009B09683E73408105910580F321E0C21AE4
:1003B000D108E108F10888EE880E83E0981EA11CA0
:1003C000B11CE4CFFF90EF90DF90CF90BF90AF9043
:1003D0009F908F9008959091000189130BC0E8E6DB
:1003E000F0E0E4919FEF90930001E13049F028F0B4
:1003F000E23061F060E00C94E80010926E00FACFF9
:1004000090916F009D7F90936F00F4CF909170005A
:100410009D7F9093700091E09093B0009091B10017
:10042000987F94609093B1001092B300E3CF4F9205
:100430005F926F927F928F929F92AF92BF92CF9274
:10044000DF92EF92FF920F931F93CF93DF9300D031
:1004500000D01F92CDB7DEB78B0129013A019091F0
:1004600000018917C9F09F3F09F47EC00F900F90DB
:100470000F900F900F90DF91CF911F910F91FF90F0
:10048000EF90DF90CF90BF90AF909F908F907F9034
:100490006F905F904F900895E8E6F0E094919D830F
:1004A00097FDE4CF61E00E9457018D81882321F000
:1004B0009D81923009F04AC14801B12CA12C60E025
:1004C00072E18AE790E0A50198010E94C513298393
:1004D0003A834B835C8369017A0181E0C81AD108B1
:1004E000E108F1089FEFC916D104E104F10409F015
:1004F0000CF401C160E472E48FE090E0A501980182
:100500000E94C51369017A0181E0C81AD108E10887
:10051000F1089D81923009F0A2C08FEFC816D10476
:10052000E104F10409F00CF4E6C160E970ED83E048
:1005300090E0A50198010E94C51369017A0191E03C
:10054000C91AD108E108F1088FEFC816D104E104F7
:10055000F10411F00CF07FC183E09091B100987F1D
:10056000892B8093B100CFC080930001E8E6F0E0D2
:1005700094919D839F3F09F479CF913041F150F0E0
:10058000923009F446C09D8197FD70CF61E00E94D2
:1005900057018ECF14BC15BC94B5926094BD95B52F
:1005A000916095BD282F30E0F901E358FF4FE491A9
:1005B000F0E0EE0FFF1FED58FF4F45915491F90108
:1005C000EF56FF4FE491E09321031D826BCF109211
:1005D000800010928100909181009860909381003A
:1005E00090918100916090938100282F30E0F90173
:1005F000E358FF4FE491F0E0EE0FFF1FED58FF4F7F
:1006000045915491F901EF56FF4FE491E093200397
:1006100049CF1092B0001092B1009091B00092605A
:100620009093B0009091B10091609093B100282F09
:1006300030E0F901E358FF4FE491F0E0EE0FFF1FC7
:10064000ED58FF4F4591549150932B0340932A034B
:10065000F901EF56FF4FE491E0932C0323CF9FEF76
:10066000C916D104E104F10409F00CF46DC068E48A
:1006700078EE81E090E0A50198010E94C513690120
:100680007A0181E0C81AD108E108F1089D81992317
:1006900009F4FAC08FEFC816D104E104F10411F097
:1006A0000CF0FBC0EFC064E274EF80E090E0A501C5
:1006B00094010E94C51369017A0181E0C81AD1082A
:1006C000E108F10885E09FEFC916D104E104F104C7
:1006D00009F008F442CF62E17AE780E090E0A501FA
:1006E00094010E94C51369017A0181E0C81AD108FA
:1006F000E108F108E5C081E09D8191112ECF95B50B
:10070000987F892B85BD2FEF3FEFA901411451043C
:100710006104710409F043C09D81913009F45EC009
:10072000923009F46DC09111A1CEC7BC209326036D
:1007300030932703409328035093290380916E0040
:10074000826080936E0092CE82E0D6CFB12CA12C35
:1007500060E072E18AE790E0A50198010E94C5136C
:1007600069017A0181E0C81AD108E108F108C114D1
:10077000D10491E0E906F10404F591E08D81813026
:1007800011F680918100887F892B809381002FEF63
:100790003FEFA9014114510461047104F9F0D8013B
:1007A000AA0FBB1FA30192010E94081428EE33E098
:1007B00040E050E00E94A313AFCF68E478EE81E000
:1007C00090E0A50198010E94C51369017A0181E0BA
:1007D000C81AD108E108F10893E0D0CFD09289007F
:1007E000C092880020932203309323034093240374
:1007F0005093250380916F00826080936F0036CE06
:10080000C092B30020932D0330932E0340932F0307
:10081000509330038091700082608093700026CEE8
:1008200084E09FEFC916D104E104F10409F008F453
:1008300066CFC980DA80EB80FC808AE0F594E7948B
:10084000D794C7948A95D1F781E0C81AD108E108F6
:10085000F10885E054CF68E478EE81E090E0A501EE
:1008600098010E94C51369017A0181E0C81AD10874
:10087000E108F1089FEFC916D104E104F10411F079
:100880000CF011CF84E069CE83E09FEFC916D1044C
:10089000E104F10409F00CF432CF62E17AE780E080
:1008A00090E0A50194010E94C51369017A0181E0DD
:1008B000C81AD108E108F1089D81992309F4B0CF45
:1008C00086E09FEFC916D104E104F10409F008F4B1
:1008D00044CEC980DA80EB80FC809AE0F594E794FE
:1008E000D794C7949A95D1F781E0C81AD108E10846
:1008F000F10887E032CE82E030CEDC01ED91FC9150
:100900000190F081E02D0994CF93DF93EC01E62F65
:10091000F0E0EE54FD4FA8A1B9A160818D919C91AA
:100920000E947D04E8A1F9A16AE080819181DF91B4
:10093000CF910C947D04CF93DF93EC01E62FF0E090
:10094000E754FD4FA8A1B9A160818D919C910E94AF
:100950007D04E8A1F9A16AE080819181DF91CF91C6
:100960000C947D04AF92BF92CF92DF92EF92FF92F0
:100970000F931F93CF93DF936C017B018B01040FC7
:10098000151FEB015E01AE18BF08C017D10759F063
:100990006991D601ED91FC910190F081E02DC601A5
:1009A0000995892B79F7C501DF91CF911F910F919F
:1009B000FF90EF90DF90CF90BF90AF900895FC0133
:1009C000538D448D252F30E0842F90E0821B930BB4
:1009D000541710F0CF96089501970895FC01918D5A
:1009E000828D981761F0A28DAE0FBF2FB11D5D965D
:1009F0008C91928D9F5F9F73928F90E008958FEFFF
:100A00009FEF0895FC01918D828D981731F0828DB2
:100A1000E80FF11D858D90E008958FEF9FEF089509
:100A2000FC01918D228D892F90E0805C9F4F821B6D
:100A300091098F73992708958AE393E00E94100526
:100A400021E0892B09F420E0822F089580E090E0D6
:100A5000892B29F00E941C0581110C940000089537
:100A6000FC01A48DA80FB92FB11DA35ABF4F2C9123
:100A7000848D90E001968F739927848FA689B7891A
:100A80002C93A089B1898C91837080648C93938D11
:100A9000848D981306C00288F389E02D80818F7DB4
:100AA00080830895EF92FF920F931F93CF93DF936C
:100AB000EC0181E0888F9B8D8C8D98131AC0E8899A
:100AC000F989808185FF15C09FB7F894EE89FF8969
:100AD0006083E889F98980818370806480839FBF07
:100AE00081E090E0DF91CF911F910F91FF90EF9007
:100AF0000895F62E0B8D10E00F5F1F4F0F73112717
:100B0000E02E8C8D8E110CC00FB607FCFACFE88951
:100B1000F989808185FFF5CFCE010E943005F1CFA4
:100B2000EB8DEC0FFD2FF11DE35AFF4FF0829FB7C5
:100B3000F8940B8FEA89FB8980818062CFCFCF93B5
:100B4000DF93EC01888D8823B9F0AA89BB89E889F5
:100B5000F9898C9185FD03C0808186FD0DC00FB69B
:100B600007FCF7CF8C9185FFF2CF808185FFEDCF19
:100B7000CE010E943005E9CFDF91CF910895FC01AD
:100B8000962F642F9330B1F028F4913041F09230D9
:100B900061F00895943099F09530B1F00895048093
:100BA000F581E02D80810C94E8000480F581E02D32
:100BB0008181F9CF0480F581E02D8281F4CF04801A
:100BC000F581E02D8381EFCF0480F581E02D8481D4
:100BD000EACFCF93DF93EC018E81882381F0CB01A4
:100BE000BA0120EA36E841E050E00E94A313422F08
:100BF000417063E0CE01DF91CF910C94BF05DF918E
:100C0000CF9108950F931F93CF938C01C62F0E940D
:100C1000340161E06C0F41E0C801CF911F910F9149
:100C20000C94BF05CF93DF93EC011E8240E063E09C
:100C30000E94BF05CE01DF91CF910C9434010F9338
:100C40001F93CF938C01C62FFC01168240E063E016
:100C50000E94BF05C15060E0C73028F4EC2FF0E0DF
:100C6000E755FE4F608140E0C801CF911F910F9181
:100C70000C94BF050F931F93CF938C01C62F41E0B7
:100C8000653009F040E0F801468363E0C8010E9446
:100C9000BF05C15060E0C73028F4EC2FF0E0E75505
:100CA000FE4F608141E0C801CF911F910F910C94DC
:100CB000BF0540E00C94BF051F93CF93DF93EC0179
:100CC000162F0E94340141E0612FCE01DF91CF91B8
:100CD0001F910C94BF051F93CF93DF93162FFC0138
:100CE000C081D181209761F0E881F9810488F5897C
:100CF000E02D612FCE0109950A80DB81C02DF2CF56
:100D0000DF91CF911F910895EF92FF921F93CF93A0
:100D1000DF93EC01CB01BA0128EE33E040E050E074
:100D20000E94A3132C8F3D8F4E8F5F8F7E0124E096
:100D3000E20EF11C11E0F701419151916191719125
:100D40007F014115510561057105C1F08C8D9D8DA7
:100D5000AE8DBF8D841B950BA60BB70B893E9340C0
:100D6000A105B10558F0612F80E494E00E946B0664
:100D7000F701349710821182128213821F5F17309D
:100D8000D1F6E881F981028CF38DE02DCE01DF915F
:100D9000CF911F91FF90EF9009941F93CF93DF9312
:100DA000162FFC01C081D181209761F0E881F98183
:100DB0000288F389E02D612FCE0109950A80DB813D
:100DC000C02DF2CFDF91CF911F910895CF93DF9384
:100DD000FC01C081D181209759F0E881F981048418
:100DE000F585E02DCE0109950A80DB81C02DF3CF7A
:100DF000DF91CF910895DC01ED91FC91119730972F
:100E000021F46D937C930895FC0182819381009776
:100E1000D9F7738362830895BC0180E494E00C9455
:100E2000FB06CF93DF93EC010E940C07E8A1F9A128
:100E3000428153816481758180819181DF91CF915D
:100E40000C9488000F931F93CF93DF938C01C62FD0
:100E50006170DC015196ED91FC9180810E94E80067
:100E6000D0E0BE01759567956170D8015196ED91FE
:100E7000FC9181810E94E800BE017595679575958A
:100E800067956170D8015196ED91FC9182810E9425
:100E9000E80023E0D595C7952A95E1F76C2F61709E
:100EA000D8015196ED91FC918381DF91CF911F91F3
:100EB0000F910C94E8000F931F93CF93DF938C0155
:100EC000C62F6170DC015196ED91FC9184810E94E6
:100ED000E800D0E0BE01759567956170D801519624
:100EE000ED91FC9185810E94E800BE0175956795A2
:100EF000759567956170D8015196ED91FC91868149
:100F00000E94E80023E0D595C7952A95E1F76C2F5C
:100F10006170D8015196ED91FC918781DF91CF915D
:100F20001F910F910C94E800CF92DF92EF92FF9205
:100F3000CF93DF93EC016A017B01E989FA8962852D
:100F40007385072E000C880B990B0E948212A70153
:100F500096010E94E6120E944A127E8B6D8B71955B
:100F600061957109788F6F8BDF91CF91FF90EF9032
:100F7000DF90CF900895CF93DF93EC01E989FA8950
:100F800024853585319521953109DB010E94EA13CD
:100F90002AE530E040E050E00E94C5133E8B2D8BE7
:100FA000388F2F8BDF91CF910895CF93DF93EC0192
:100FB000E989FA8961E080810E945701E989FA890B
:100FC00061E081810E945701E989FA8961E08281AB
:100FD0000E945701E989FA8961E083810E945701E3
:100FE000E989FA8961E084810E945701E989FA89D7
:100FF00061E085810E945701E989FA8961E0868173
:101000000E945701E989FA8961E087810E945701AE
:1010100088E090E09E8B8D8B988F8F8BBE01635FF5
:101020007F4F80E494E0DF91CF910C94FB06EF9228
:10103000FF920F931F93CF93DF93EC01FF80ED811D
:10104000FE81E08000914004109141048C8588234A
:10105000D1F00115110571F0D801ED91FC910684D4
:10106000F785E02D4E2D6F2DC8010995F8010281FD
:101070001381EFCF1E821D82DF91CF911F910F91BF
:10108000FF90EF900895EF1011C01E821D82011590
:10109000110591F3D801ED91FC910284F385E02DC7
:1010A000C8010995F80102811381F1CFEF0DF11DFF
:1010B000F1800115110569F0D801ED91FC910280D4
:1010C000F381E02D6F2DC8010995F801028113818C
:1010D000F0CFEFEFEF0DE73008F04DC0F0E0ED5846
:1010E000F74F0C94E41399087A08BE088F08E008BB
:1010F000F408F908ED81FE81EB59FF4F0081118161
:10110000E881F9810280F381E02DB801CE010995D3
:101110008A819B81080F191F1B830A83ADCFED8144
:10112000FE81EB59FF4F0081118111950195110945
:10113000E7CFE881F9810480F581E02D8C81882357
:10114000A1F02A813B81C9016DE270E00E948F13FA
:10115000892B59F4C9016AE570E00E948F1343EFAF
:1011600054E065EB7FE3892B21F440E050E060E838
:101170007FE3CE01099510E000E0CACFE881F98154
:101180000480F581E02D8C818823A1F02A813B81A8
:10119000C9016DE270E00E948F13892B59F4C901D7
:1011A0006AE570E00E948F1343EF54E065EB7FE344
:1011B000892B21F440E050E060E87FE37058D9CFFC
:1011C0002FB7F8948091320390913303A0913403A8
:1011D000B09135032FBF88519C4FAF4FBF4F8887C9
:1011E0009987AA87BB87C7CFED81FE81E959FF4F59
:1011F00085CFED81FE81E959FF4F95CF0F931F9366
:10120000CF938C01C1E0C60FC15088F024E630E0D6
:1012100040E050E06BE572E1F80184810E94170222
:1012200068EC70E080E090E00E94B801EDCFCF91D3
:101230001F910F9108952FEF260F243090F4262F41
:101240002150330BF901EE0FFF1FE756FE4F60816F
:10125000718124E630E040E050E0FC0184810C9490
:1012600017026BE572E1F5CF2FEF260F243090F4D3
:10127000262F2150330BF901EE0FFF1FE756FE4FCB
:101280006081718128EC30E040E050E0FC01848115
:101290000C9417026BE572E1F5CF8F929F92AF929B
:1012A000BF92EF92FF920F931F93CF93DC01909622
:1012B000ED91FC91919790819E3008F09E5097702F
:1012C000906490937C0080917A00806480937A008F
:1012D00080917A0086FDFCCF809178002091790082
:1012E000322F282FA9014E5D53402F3D63E0360772
:1012F00024F44EED53E0421B530B9096ED91FC917C
:10130000919782819381B901681B790BCB0177FF9B
:1013100003C0919581959109C0E08417950714F455
:10132000AC01C1E084819581B901681B790BCB01C7
:1013300077FF03C09195819591098417950714F45F
:10134000AC01C2E086819781B901681B790BCB01A2
:1013500077FF03C09195819591098417950714F43F
:10136000AC01C3E080859185B901681B790B77FFDB
:1013700003C07195619571096417750714F4AB0189
:10138000C4E082859385B901681B790B77FF03C0A0
:101390007195619571096417750714F4AB01C5E087
:1013A00084859585281B390B37FF03C0319521951E
:1013B0003109241735070CF4C6E092966C91929788
:1013C0006C1709F46BC08D01662399F1EE24EA9441
:1013D000E60E74E0E79E70011124EA0EFB1ED701B1
:1013E00014968D909D90AD90BC90179781149104A8
:1013F000A104B104F1F0F801848D958DA68DB78D0F
:1014000088199909AA09BB098F319105A105B10570
:1014100080F0883E9340A105B10520F480E494E07B
:101420000E94CD06D70114961D921D921D921C920A
:101430001797CC2381F1EFEFEC0FB4E0EB9FF001B5
:1014400011249F01200F311FF90184819581A6810C
:10145000B781892B8A2B8B2BF1F4F801848D958D24
:10146000A68DB78DF90184839583A683B783E09019
:101470004004F0904104E114F10469F0D701ED91CA
:10148000FC910088F189E02D6C2FC7010995F701C7
:10149000E280F380F0CFD8019296CC93CF911F9148
:1014A0000F91FF90EF90BF90AF909F908F90089515
:1014B000CF93DF93EC010E940C07E8A1F9A1818191
:1014C00060E0811162E080810E9457011AA2DF91E1
:1014D000CF910895089508950895FF920F931F9353
:1014E000CF93DF93E091D703E11115C0DC0114968F
:1014F0002D913C91232B79F4AFE8B1E02D9131E0AF
:101500003E0F222331F0F0E0E952FC4F2183E32F1C
:10151000F5CFE093D7032091D703222391F1EC017B
:1015200064EF71E080E090E00E94B801F090D70392
:10153000FF2011F11092A6041092AB0487ED93E006
:101540009093A5048093A404009140041091410459
:101550000115110569F0D801ED91FC910084F18528
:10156000E02D6F2DC8010995F80102811381F0CF9C
:101570008FE994E00E9417088C819D8101969D83DC
:101580008C83DF91CF911F910F91FF9008951F934E
:10159000CF93DF93E091D703E436D8F4162F81E0A0
:1015A0008E0F8093D703F0E0E952FC4F6183C09126
:1015B0004004D0914104209789F0E881F9810680A8
:1015C000F781E02D612FCE0109950A80DB81C02DC6
:1015D000F2CFDF91CF911F910C946D0ADF91CF91E3
:1015E0001F9108951092D70380E494E00C94E606CE
:1015F0001F93CF93DF932091A4043091A504232B54
:1016000039F081E08093AB04DF91CF911F91089571
:101610006330D9F140F46230B9F766E0DF91CF91E1
:101620001F910C94C70A643091F1653069F7FC0191
:1016300026812F5F21702683213059F12AE530E081
:1016400030933D0420933C042DE230E030933F047E
:1016500020933E0421E02093A3041092A204109250
:10166000A104FC011681C0914004D091410420974F
:1016700059F2E881F9810688F789E02D612FCE01C2
:1016800009950A80DB81C02DF2CF65E0C7CF67E006
:10169000C5CF2CE330E030933D0420933C0428E791
:1016A00030E030933F0420933E041092A304D5CF42
:1016B0002091A4043091A504232B21F081E0809394
:1016C000AB040895633089F028F4613049F062304A
:1016D00051F00895653069F050F0663061F008957A
:1016E00061E00C94C70A62E0FCCF63E0FACF64E0EB
:1016F000F8CF0C946D0A1092D70380E494E00C9418
:10170000E606089508950F931F93CF93DF93EC019E
:101710008C010E5D1F4FE8A1F9A180819181DC0150
:10172000ED91FC910084F185E02D0995892B09F458
:1017300068C0E8A1F9A180819181DC01ED91FC9163
:101740000284F385E02D0995EDA58A30A9F5EC0F0B
:10175000FD2FF11D12A21DA6F80101900020E9F74E
:101760003197E01BF10BE130F10589F56AA1062EF6
:10177000000C770B8AEB92E00E941814009741F05E
:101780008A5B924061E0680F80E494E00E946B06FF
:101790006AA1062E000C770B83EB92E00E941814CE
:1017A000009709F4B8CF835B924061E0680F80E452
:1017B00094E00E94CD06AFCFEA3008F0ACCF91E0C4
:1017C0009E0F9DA7EC0FFD2FF11D82A3A4CF329792
:1017D00009F0A1CF6AA18BA168139DCF062E000C42
:1017E000770B83EB92E00E941814009709F493CFD3
:1017F000835B924061E0680F80E494E00E946B0696
:101800008ACFDF91CF911F910F910895FB01019035
:101810000020E9F73197AF01461B570BDC01ED9132
:10182000FC910280F381E02D09948F929F92AF92F8
:10183000BF92EF92FF920F931F93CF93DF93CDB799
:10184000DEB7A1970FB6F894DEBF0FBECDBF7C0107
:10185000FA01CB0119A2223008F42AE08E010F5DB3
:101860001F4F822E912CB12CA12CBF01A5019401F8
:101870000E94A313F901CA016A300CF5605DD8011A
:101880006E938D01232B242B252B79F790E080E09C
:10189000109721F0BD01C7010E94060CA1960FB65A
:1018A000F894DEBF0FBECDBFDF91CF911F910F9196
:1018B000FF90EF90BF90AF909F908F900895695CDC
:1018C000DECF6115710511F00C94060C90E080E0FC
:1018D00008950F931F93CF93DF93EC01062F142FDE
:1018E000E8A1F9A161EC72E0808191810E94610C14
:1018F000E8A1F9A166EC72E0808191810E94610CFF
:10190000402F50E070E060E0E8A1F9A12AE080817A
:1019100091810E94150CE8A1F9A16FEC72E0808121
:1019200091810E94610C412F50E070E060E0E8A1DD
:10193000F9A12AE0808191810E94150CE8A1F9A10A
:101940006AE080819181DF91CF911F910F910C947A
:101950007D04CF93DF93EC01E8A1F9A161EC72E083
:10196000808191810E94610CE8A1F9A161ED72E092
:10197000808191810E94610CE8A1F9A16AE08081D7
:101980009181DF91CF910C947D04CF93DF93EC0193
:10199000E8A1F9A161EC72E0808191810E94610C63
:1019A000E8A1F9A167ED72E0808191810E94610C4C
:1019B000E8A1F9A16AE080819181DF91CF910C9437
:1019C0007D041F93CF93DF93EC01162FE8A1F9A1BB
:1019D00061EC72E0808191810E94610CE8A1F9A123
:1019E0006BED72E0808191810E94610C412F50E08B
:1019F00070E060E0E8A1F9A12AE0808191810E9475
:101A0000150CE8A1F9A16AE080819181DF91CF9165
:101A10001F910C947D041F93CF93DF93EC01162F3D
:101A2000E8A1F9A161EC72E0808191810E94610CD2
:101A3000412F50E070E060E0E8A1F9A12AE0808148
:101A400091810E94150CE8A1F9A160E28081918149
:101A50000E947D04E12FF0E0EE54FD4FA8A1B9A152
:101A600060818D919C910E947D04E8A1F9A16AE0BA
:101A700080819181DF91CF911F910C947D040E9410
:101A800013142F923F924F925F926F927F928F9298
:101A90009F92AF92BF92CF92DF92EF92FF920F93FD
:101AA0001F93CF93DF936C011092D70380E494E0EF
:101AB0000E94E60640E4E42EFF24F39455E0552E00
:101AC00000E1C0EED2E08881882389F18A3379F180
:101AD000843689F08F36E1F0823639F52296CE01D0
:101AE0000E9424127C01CE01EC0101962881205332
:101AF0002A30D0F3E8CF2296CE010E942412082F7C
:101B0000CE01EC010196288120532A30D0F3DBCF9F
:101B10002296CE010E942412582ECE01EC0101968D
:101B2000288120532A30D0F3CECF2196CCCF2196D6
:101B3000602E712C052D462C372C1FEF98EEA92E08
:101B400093E0B92E2AE0222E3CE3832E912C88814B
:101B5000882309F481C08A30E8F4CE010E9424125F
:101B600017FF16C08E9D90018F9D300D9E9D300DEC
:101B70001124C901B4010E947B13462E372E9E0109
:101B8000E9012F5F3F4F888180538A30C8F3DFCF50
:101B9000082FF5CF8336F9F06CF48C3231F124F450
:101BA000833209F12196D3CF813699F08236D1F76D
:101BB00013E0F8CF863699F034F4843671F0853628
:101BC00089F718E0EFCF873661F0803759F710E0DA
:101BD000E9CF11E0E7CF14E0E5CF16E0E3CF19E05D
:101BE000E1CF1AE0DFCF1F5FDDCF1F3F89F18CEF20
:101BF000800F853040F51116CCF4202F2450330B84
:101C0000229EF001239EF00D1124E10FF11D17FD1E
:101C1000FA95EE0FFF1FE150FF4F6081718120E0C8
:101C200030E0A90180914D040E941702C501642D86
:101C3000732D0E947B1390E080E00E94B801809198
:101C40004D040E94EB01052D462C372C1FEFAACF27
:101C5000052D462C372CA6CFF6018681811128C090
:101C60008091A1049091A2046AE570E00E948F1314
:101C7000892BF1F041E062E082E494E00E94BF052C
:101C800041E064E082E494E0DF91CF911F910F91F5
:101C9000FF90EF90DF90CF90BF90AF909F908F908C
:101CA0007F906F905F904F903F902F900C94BF0566
:101CB000DF91CF911F910F91FF90EF90DF90CF9028
:101CC000BF90AF909F908F907F906F905F904F905C
:101CD0003F902F9008951F920F920FB60F921124EC
:101CE0002F933F938F939F93AF93BF938091320332
:101CF00090913303A0913403B091350330913103B7
:101D000023E0230F2D3758F50196A11DB11D209317
:101D100031038093320390933303A0933403B09341
:101D200035038091360390913703A0913803B09129
:101D300039030196A11DB11D80933603909337039B
:101D4000A0933803B0933903BF91AF919F918F91C6
:101D50003F912F910F900FBE0F901F90189526E87E
:101D6000230F0296A11DB11DD2CF1F920F920FB665
:101D70000F9211242F933F934F935F936F937F9311
:101D80008F939F93AF93BF93EF93FF9380912D0316
:101D900090912E03A0912F03B0913003892B8A2BB1
:101DA0008B2BD1F190912C03E0912A03F0912B031E
:101DB00080818927808380912D0390912E03A091AB
:101DC0002F03B0913003181619061A061B069CF44F
:101DD00080912D0390912E03A0912F03B091300399
:101DE0000197A109B10980932D0390932E03A0932D
:101DF0002F03B0933003FF91EF91BF91AF919F916B
:101E00008F917F916F915F914F913F912F910F90A3
:101E10000FBE0F901F901895809100010E94EB015A
:101E2000EACF1F920F920FB60F9211242F933F9378
:101E30004F935F936F937F938F939F93AF93BF93D2
:101E4000EF93FF938AE393E00E943005FF91EF91B7
:101E5000BF91AF919F918F917F916F915F914F91C2
:101E60003F912F910F900FBE0F901F9018951F92CA
:101E70000F920FB60F9211242F938F939F93EF938E
:101E8000FF93E0914A03F0914B038081E09150036E
:101E9000F091510382FD1BC09081809153038F5FAD
:101EA0008F7320915403821741F0E0915303F0E0C7
:101EB000E65CFC4F958F80935303FF91EF919F91C8
:101EC0008F912F910F900FBE0F901F9018958081CA
:101ED000F4CFFF920F931F93CF93DF93DC011596FE
:101EE0002D913C91232B09F4A7C0EC018F89988D8B
:101EF000009709F054C08D899E89892B09F070C024
:101F000088859985AA85BB85892B8A2B8B2BC9F05F
:101F10002FB7F8948091320390913303A09134034A
:101F2000B09135032FBF488559856A857B85841715
:101F30009507A607B70708F47FC0188619861A8682
:101F40001B8660E0CE010E94220760E0CE010E9465
:101F50005B078D819E81EF81E80FF92FF11DF180E4
:101F600000914004109141040115110569F0D80158
:101F7000ED91FC910480F581E02D6F2DC80109954C
:101F8000F80102811381F0CF8F818F5F8F83CE01A3
:101F9000DF91CF911F910F91FF900C9417081FEFC5
:101FA000181619060CF411E0EB890E2E000CFF0B2D
:101FB000EF55FE4F6081CE010E9422078B89885F1A
:101FC000810F877887FF03C08150886F8F5F8B8B6D
:101FD0008F89988D811B910917FD9395988F8F8B11
:101FE0008D899E89009709F11FEF181619060CF4C8
:101FF00011E0EC890E2E000CFF0BEF55FE4F6081B7
:10200000CE010E945B078C89885F810F877887FFEC
:1020100003C08150886F8F5F8C8B8D899E89811B57
:10202000910917FD93959E8B8D8B8C85882351F09C
:102030001E8A1D8A188E1F8ADF91CF911F910F91E2
:10204000FF900895E989FA8920853185032E000CD7
:10205000440B550B60E472E48FE090E00E94C513DE
:102060002230310548F3220F331F220F331F255032
:102070003109C9010197F1F7DFCF0D970C94690F72
:1020800010923D0310923C0388EE93E0A0E0B0E094
:1020900080933E0390933F03A0934003B09341038A
:1020A00084EB91E090933B0380933A0385EC90E0BE
:1020B000909347038093460384EC90E09093490308
:1020C0008093480380EC90E090934B0380934A0305
:1020D00081EC90E090934D0380934C0382EC90E070
:1020E00090934F0380934E0386EC90E090935103BE
:1020F000809350031092530310925403109255038F
:10210000109256031092A2041092A10481E08093D1
:10211000A3041092A5041092A4041092A604109295
:10212000AB041092A7041092A8041092A904109274
:10213000AA041092AF041092AE048CE492E0909343
:10214000A00480939F0488E592E09093AD0480936F
:10215000AC0489E892E09093B1048093B0041092AB
:10216000B5041092B4041092B7041092B604109201
:10217000B2041092B30410927F0410927E04E0E83F
:10218000F4E0119211921192119284E0E839F8076B
:10219000C1F7109298041092990410929A04109228
:1021A0009B048CE292E090937D0480937C048BE707
:1021B00092E090939D0480939C041092510410929D
:1021C0005004E2E5F4E0119211921192119284E030
:1021D000EA36F807C1F710926A0410926B04109265
:1021E0006C0410926D048EEF91E090934F048093F5
:1021F0004E0485E792E090936F0480936E041092F2
:102200007B0410924C0410924B0482EE91E0909368
:102210004A04809349048AE080934D041092450457
:102220001092440486EC91E090934304809342041E
:1022300080E792E09093470480934604109248040C
:1022400010924104109240041092D7038AE590E066
:1022500090933D0480933C048DE290E090933F0482
:1022600080933E041092BB041092BA048BE992E072
:102270009093B9048093B8041092BD041092BC04EA
:102280001092BE040895789484B5826084BD84B5AC
:10229000816084BD85B5826085BD85B5816085BD61
:1022A00080916E00816080936E0010928100809119
:1022B00081008260809381008091810081608093A1
:1022C0008100809180008160809380008091B100C6
:1022D00084608093B1008091B00081608093B000F1
:1022E00080917A00846080937A0080917A00826085
:1022F00080937A0080917A00816080937A00809147
:102300007A00806880937A001092C1008FE994E08F
:102310000E94D5078CE794E00E94580A40E855E2F5
:1023200060E070E08AE393E00E94880065E173E07A
:102330008AE393E00E94060C6CE173E08AE393E089
:102340000E94060C64E670E080E090E00E94B80114
:102350008EE494E00E94110761E080914D040E9498
:10236000570169E474E080E494E00E94FB0624E6EF
:1023700030E040E050E06BE572E180914D040E9456
:102380001702E0914604F091470461E080810E94C9
:102390005701E0914604F091470461E081810E9479
:1023A0005701E0914604F091470461E082810E9468
:1023B0005701E0914604F091470461E083810E9457
:1023C0005701E0914604F091470461E084810E9446
:1023D000570162E474E080E494E00E94FB0668EB3D
:1023E00074E080E494E00E94FB0600E010E00E94AC
:1023F00093016B017C01C0914004D091410420976E
:1024000069F0E881F9810190F081E02DB701A60122
:10241000CE0109950A80DB81C02DF1CF8091A40403
:102420009091A504892B31F46AE070E080E090E09F
:102430000E94B80101151105D1F20E941C058823E4
:10244000B1F20E940000D3CFFC0188279927E894BD
:1024500021912032E9F3293010F02E30C8F32B32CD
:1024600041F02D3239F4689404C00E944212820F68
:10247000911D219120532A30C0F31EF4909581952F
:102480009F4F08957AE0979F902D879F802D910D03
:10249000112408950E9451126894B1110C94E01215
:1024A00008950E94C51288F09F5798F0B92F992778
:1024B000B751B0F0E1F0660F771F881F991F1AF02F
:1024C000BA95C9F714C0B13091F00E94DF12B1E0A3
:1024D00008950C94DF12672F782F8827B85F39F0A2
:1024E000B93FCCF3869577956795B395D9F73EF4C8
:1024F00090958095709561957F4F8F4F9F4F089570
:10250000E89409C097FB3EF490958095709561958D
:102510007F4F8F4F9F4F9923A9F0F92F96E9BB2743
:102520009395F695879577956795B795F111F8CFBF
:10253000FAF4BB0F11F460FF1BC06F5F7F4F8F4F2A
:102540009F4F16C0882311F096E911C0772321F020
:102550009EE8872F762F05C0662371F096E8862FB8
:1025600070E060E02AF09A95660F771F881FDAF70F
:10257000880F9695879597F9089557FD9058440FC1
:10258000551F59F05F3F71F04795880F97FB991FD2
:1025900061F09F3F79F0879508951216130614068F
:1025A000551FF2CF4695F1DF08C01616170618061C
:1025B000991FF1CF86957105610508940895E894F7
:1025C000BB2766277727CB0197F908950E94F91258
:1025D0000C946A130E945C1338F00E94631320F07D
:1025E000952311F00C9453130C94591311240C944B
:1025F000E0120E94BD1270F3959FC1F3950F50E059
:10260000551F629FF001729FBB27F00DB11D639FA4
:10261000AA27F00DB11DAA1F649F6627B00DA11D4A
:10262000661F829F2227B00DA11D621F739FB00DF0
:10263000A11D621F839FA00D611D221F749F332760
:10264000A00D611D231F849F600D211D822F762FF9
:102650006A2F11249F5750409AF0F1F088234AF0D6
:10266000EE0FFF1FBB1F661F771F881F9150504042
:10267000A9F79E3F510580F00C9453130C94E0127F
:102680005F3FE4F3983ED4F3869577956795B795C9
:10269000F795E7959F5FC1F7FE2B880F911D9695E3
:1026A000879597F9089597F99F6780E870E060E053
:1026B00008959FEF80EC089500240A9416161706DB
:1026C00018060906089500240A9412161306140623
:1026D00005060895092E0394000C11F4882352F086
:1026E000BB0F40F4BF2B11F460FF04C06F5F7F4F3E
:1026F0008F4F9F4F0895AA1BBB1B51E107C0AA1F14
:10270000BB1FA617B70710F0A61BB70B881F991F92
:102710005A95A9F780959095BC01CD01089597FB36
:10272000072E16F4009407D077FD09D00E947B1382
:1027300007FC05D03EF4909581959F4F08957095C4
:1027400061957F4F0895A1E21A2EAA1BBB1BFD01C4
:102750000DC0AA1FBB1FEE1FFF1FA217B307E40780
:10276000F50720F0A21BB30BE40BF50B661F771FD8
:10277000881F991F1A9469F76095709580959095B8
:102780009B01AC01BD01CF010895052E97FB1EF4FE
:1027900000940E94DC1357FD07D00E94A31307FC8E
:1027A00003D04EF40C94DC13509540953095219550
:1027B0003F4F4F4F5F4F089590958095709561956D
:1027C0007F4F8F4F9F4F0895EE0FFF1F0590F4919D
:1027D000E02D09940E94F213332312F48A1B9B0B01
:1027E0000C940314A29FB001B39FC001A39F700D6E
:1027F000811D1124911DB29F700D811D1124911D09
:1028000008950E94F213B7FF0895821B930B089559
:102810000E94F213A59F900DB49F900DA49F800D70
:10282000911D1124089581E090E0F8940C942314F4
:10283000FC018191861721F08823D9F79927089503
:0A2840003197CF010895F894FFCFFF
:10284A00FFB801D201EE010B022A024B026E02937B
:10285A0002BA02E40210033F037003A403DB031667
:10286A000454049604DC0426057405C7051F067D76
:10287A0006E0064807B7072D08A9082D09B9094D2A
:10288A000AE90A8F0B3F0CFA0CC00D910E6F0F5A12
:10289A001052115A1272139A14D3151F177F18F473
:1028AA0019801B221DDE1EB420A522B524E426347D
:1028BA0029A72B3F2EFF30E9330037453ABC3D6844
:1028CA00414B456A49C84D68524E577F5CFF6101CA
:1028DA000504050202050403004D0A5211C00DA9A0
:1028EA000801030206040C08090102030400020499
:1028FA00000000005205B204DF049F051005EE0433
:10290A00020500000000E9053A061F066A0A6A0A7B
:10291A006C0A6C0A12065C06590659060206000081
:10292A000000820B1B096A0A6A0A6A0A6C0A6C0AA4
:10293A006B0A6A0A1B093409FE08000000008406B3
:10294A006A0A6A0A6A0A6A0A6C0A6C0A6B0A6A0AD8
:10295A006A0A6A0A6A0A1107830B9B0484040B0D2C
:10296A00E10CC50CA90C690C0000000084066A0A77
:10297A006A0A6A0A6A0A6C0A6C0A6B0A6A0A6A0AA8
:10298A006A0A6A0A580A4D0900000000D507BB07FF
:10299A009407690FF3FF00003D106A0A6A0A6A0A7F
:1029AA006A0A6C0A6C0A6B0A6A0A6A0A6A0A6A0A78
:1029BA000E11100F0D3A0380250000150100025C6C
:1029CA00030103AB022A03000009080706050403F2
:1029DA0002E803CA06000400000000820B6A0A6AC1
:1029EA000A6A0A6A0A410D6C0AF20A810B580BF844
:1029FA000A6A0A6E6573776772004E4553574752E3
:102A0A00005052473A0041424F5254454420002F49
:102A1A0000524553455400454E4400474F20003A62
:102A2A00643D31362C6F3D362C623D3830303A6683
:102A3A002C34702C662C34702C662C34702C662C3A
:102A4A0034702C632C34702C632C34702C632C342B
:102A5A00702C632C0076312E362E32000D0A0000BF
:00000001FF
